:100000000C9446000C9465000C9465000C946500FB
:100010000C9465000C9465000C9465000C946500CC
:100020000C9465000C9465000C9465000C946500BC
:100030000C9465000C945A020C9465000C946500B5
:100040000C9465000C9465000C9465000C9465009C
:100050000C9465000C9465000C9465000C9465008C
:100060000C9465000C9465000C9465000C9465007C
:100070000C9465000C9465000C9465000C9465006C
:100080000C9465000C9465000C94650011241FBE4F
:10009000CFEFD0E4DEBFCDBF11E0A0E0B1E0EAE0F9
:1000A000F7E000E00BBF02C007900D92A432B10749
:1000B000D9F721E0A4E2B1E001C01D92A134B2075A
:1000C000E1F70E94A9020C9483030C94000040E025
:1000D00050E00CC000002F5F3F4F02C020E030E036
:1000E000273063E03607B4F34F5F5F4F4817590777
:1000F000ACF308959BB19F7B9BB982B98BB18068AB
:100100008BB900008BB18F778BB982E090E00E94B1
:100110006700089581E00E947A000895813120F4FB
:1001200081580E947A00089581550E947A000895AE
:1001300084E690E00E94670088E30E947A0086E0EF
:100140000E947A008FE00E947A0081E00E947A008B
:100150008AE090E00E94670008959BB190649BB98B
:1001600082B98BB180688BB900008BB18F778BB966
:1001700081E090E00E9467000895EF92FF920F9354
:100180001F93CF93DF93182FEB010E948A000EC0BC
:1001900001E0010F812F0E948E007E018FEFE81A8F
:1001A000F80A88810E94AD00102FE7018881811133
:1001B000EFCFDF91CF911F910F91FF90EF900895B6
:1001C000CF93C82F8A3019F48DE00E94E00080910F
:1001D000C00085FFFCCFC093C60080E090E0CF91C7
:1001E000089580912401882379F00E94AD00109237
:1001F000240180910001803110F48F5F01C081E003
:10020000809300010E948E000895442349F021E06C
:1002100030E002C0220F331F6A95E2F7822B089567
:1002200021E030E002C0220F331F6A95E2F72095EB
:100230008223089521E030E002C0220F331F6A9527
:10024000E2F78223089540E064E08FEF0E94050109
:1002500088B9000086B160E080950E941A01811182
:1002600080C086B161E080950E941A0181117BC037
:1002700086B162E080950E941A01811176C086B134
:1002800063E080950E941A01811171C040E065E031
:100290008FEF0E94050188B9000086B160E080956B
:1002A0000E941A01811165C086B161E080950E94AB
:1002B0001A01811160C086B162E080950E941A0126
:1002C00081115BC086B163E080950E941A018111A3
:1002D00056C040E066E08FEF0E94050188B900003B
:1002E00086B160E080950E941A0181114AC086B1F2
:1002F00061E080950E941A01811145C086B162E0DB
:1003000080950E941A01811140C086B163E08095FA
:100310000E941A0181113BC040E067E08FEF0E940C
:10032000050188B9000086B160E080950E941A013D
:1003300081112FC086B161E080950E941A01811160
:100340002AC086B162E080950E941A01811125C001
:1003500086B163E080950E941A018823F9F084E455
:10036000089581E3089584E3089587E308958AE278
:10037000089582E3089585E3089588E3089580E36E
:10038000089583E3089586E3089589E3089583E259
:10039000089581E4089582E4089583E40895CF9355
:1003A000DF93EC01009719F0019751F014C00E94FF
:1003B0002301882391F080934001C1E0D0E00DC07B
:1003C0000E942301811109C0809140018093240182
:1003D000C0E0D0E002C0C0E0D0E0CE01DF91CF911C
:1003E00008950F931F93CF93DF93B62FA72FF82F66
:1003F000E92F022F132FD42FC52F04C0062F172F3C
:10040000D82FC92F6B2F7A2F8F2F9E2F202F312F70
:100410004D2F5C2F0E946103B02FA12FFD2FEC2FD9
:10042000611571058105910549F7602F712F8D2F99
:100430009C2FDF91CF911F910F91089560930F0131
:100440007093100180931101909312016093250124
:1004500070932601809327019093280108958BE0E3
:10046000809381008DE790E09093890080938800CD
:1004700082E080936F00109285001092840080913A
:100480000F0190911001A0911101B0911201809380
:10049000250190932601A0932701B09328018FB7DF
:1004A00080688FBF089510928100089581E0809345
:1004B000290108951F920F920FB60F9211240BB6C7
:1004C0000F922F933F934F935F936F937F938F93ED
:1004D0009F93AF93BF93EF93FF93809125019091EA
:1004E0002601A0912701B09128010197A109B10926
:1004F0008093250190932601A0932701B0932801B2
:10050000892B8A2B8B2B91F40E94560280910F012C
:1005100090911001A0911101B091120180932501D9
:1005200090932601A0932701B0932801FF91EF91AA
:10053000BF91AF919F918F917F916F915F914F91FB
:100540003F912F910F900BBE0F900FBE0F901F90F9
:100550001895CF93DF9300D000D0CDB7DEB71FEF53
:1005600011B912B814B915B880EF87B98FE088B9FE
:100570001AB91BB80E94980063E171E081E00E9403
:10058000BD0081E00E948E00A5E3B1E0BA83A9839B
:10059000EAE2F1E0FC83EB831C934AE050E060E088
:1005A00070E011964D935D936D937C93149715961F
:1005B0004D935D936D937C9318978FEC91E01A9611
:1005C0009C938E9319971083418352836383748322
:1005D000458356836783708781EF90E09287818798
:1005E0000F2EFAE08F2E912CA12CB12CF02D00E0D3
:1005F00010E018C0F801EE0FFF1F81E090E08C0FB3
:100600009D1FE80FF91F0190F081E02D21813281BB
:1006100043815481C501B4010E94F1014B015C0189
:100620000F5F1F4F0230110528F3C501B4010E946E
:100630001E020E942F02E12CF12C38C0F701EE0FB0
:10064000FF1FA1E0B0E0AC0FBD1FEA0FFB1F008150
:100650001181F80145815681678170858181928180
:10066000A381B481481759076A077B0779F401848D
:10067000F285E02DD8018C91082E000C990B09957C
:10068000F80180831582168217821086F801858111
:100690009681A781B085880D991DAA1DBB1D8583F4
:1006A0009683A783B087FFEFEF1AFF0A82E0E81670
:1006B000F10420F2809129018823E1F310922901AD
:1006C000BACFA1E21A2EAA1BBB1BFD010DC0AA1FA7
:1006D000BB1FEE1FFF1FA217B307E407F50720F0AB
:1006E000A21BB30BE40BF50B661F771F881F991F26
:1006F0001A9469F760957095809590959B01AC016F
:0A070000BD01CF010895F894FFCF6A
:10070A00010000000200000000E0000000000001FB
:10071A00000000436F6E67726174756C6174696F73
:04072A006E732100C9
:00000001FF
