:100000000C9446000C9465000C9465000C946500FB
:100010000C9465000C9465000C9465000C946500CC
:100020000C9465000C9465000C9465000C946500BC
:100030000C9465000C942D010C9465000C946500E3
:100040000C9465000C9465000C9465000C9465009C
:100050000C9465000C9465000C9465000C9465008C
:100060000C9465000C9465000C9465000C9465007C
:100070000C9465000C9465000C9465000C9465006C
:100080000C9465000C9465000C94650011241FBE4F
:10009000CFEFD0E4DEBFCDBF11E0A0E0B1E0E2E6FB
:1000A000F3E000E00BBF02C007900D92A833B10748
:1000B000D9F721E0A8E3B1E001C01D92AD33B2074A
:1000C000E1F70E947C010C94AF010C94000040E029
:1000D00050E00CC000002F5F3F4F02C020E030E036
:1000E000273063E03607B4F34F5F5F4F4817590777
:1000F000ACF308959BB19F7B9BB982B98BB18068AB
:100100008BB900008BB18F778BB982E090E00E94B1
:100110006700089581E00E947A000895813120F4FB
:1001200081580E947A00089581550E947A000895AE
:1001300084E690E00E94670088E30E947A0086E0EF
:100140000E947A008FE00E947A0081E00E947A008B
:100150008AE090E00E94670008959BB190649BB98B
:1001600082B98BB180688BB900008BB18F778BB966
:1001700081E090E00E9467000895EF92FF920F9354
:100180001F93CF93DF93182FEB010E948A000EC0BC
:1001900001E0010F812F0E948E007E018FEFE81A8F
:1001A000F80A88810E94AD00102FE7018881811133
:1001B000EFCFDF91CF911F910F91FF90EF900895B6
:1001C000CF93C82F8A3019F48DE00E94E00080910F
:1001D000C00085FFFCCFC093C60080E090E0CF91C7
:1001E000089560930E0170930F0180931001909316
:1001F0001101609338017093390180933A01909313
:100200003B0108958BE0809381008DE790E090930F
:1002100089008093880082E080936F0010928500AF
:100220001092840080910E0190910F01A091100115
:10023000B09111018093380190933901A0933A0154
:10024000B0933B018FB780688FBF089510928100F3
:10025000089581E080933C0108951F920F920FB69C
:100260000F9211240BB60F922F933F934F935F93EE
:100270006F937F938F939F93AF93BF93EF93FF936E
:100280008091380190913901A0913A01B0913B01E0
:100290000197A109B1098093380190933901A09386
:1002A0003A01B0933B01892B8A2B8B2B91F40E944E
:1002B000290180910E0190910F01A0911001B09140
:1002C00011018093380190933901A0933A01B093C2
:1002D0003B01FF91EF91BF91AF919F918F917F91E2
:1002E0006F915F914F913F912F910F900BBE0F90A7
:1002F0000FBE0F901F9018958FEF81B912B88AB971
:100300001BB86CE271E080E090E00E94F1000E9476
:1003100002010E94980002E111E00E948A00D0E0F0
:10032000C1E00BC08C2F0E948E00F801ED0FF11D73
:1003300080810E94AD00CF5FDF5FC13198F3F8018B
:100340008081813619F00F5F1F4F02C002E111E07A
:1003500080913C018823E1F310923C01DECFF894B8
:02036000FFCFCD
:100362000000000200000000E000000000000100A8
:100372000000435331323042206973204C65676577
:100382006E642E2E2E207761697420666F7220694A
:0803920074204441525921007E
:00000001FF
