:100000000C9446000C9465000C9465000C946500FB
:100010000C9465000C9465000C9465000C946500CC
:100020000C9465000C9465000C9465000C946500BC
:100030000C9465000C9446020C9465000C946500C9
:100040000C9465000C9465000C9465000C9465009C
:100050000C9465000C9465000C9465000C9465008C
:100060000C9465000C9465000C9465000C9465007C
:100070000C9465000C9465000C9465000C9465006C
:100080000C9465000C9465000C94650011241FBE4F
:10009000CFEFD0E4DEBFCDBF11E0A0E0B1E0EAEAEF
:1000A000F6E000E00BBF02C007900D92A431B1074B
:1000B000D9F721E0A4E1B1E001C01D92A532B20759
:1000C000E1F70E9495020C9453030C94000040E069
:1000D00050E00CC000002F5F3F4F02C020E030E036
:1000E000273063E03607B4F34F5F5F4F4817590777
:1000F000ACF308959BB19F7B9BB982B98BB18068AB
:100100008BB900008BB18F778BB982E090E00E94B1
:100110006700089581E00E947A000895813120F4FB
:1001200081580E947A00089581550E947A000895AE
:1001300084E690E00E94670088E30E947A0086E0EF
:100140000E947A008FE00E947A0081E00E947A008B
:100150008AE090E00E94670008959BB190649BB98B
:1001600082B98BB180688BB900008BB18F778BB966
:1001700081E090E00E9467000895EF92FF920F9354
:100180001F93CF93DF93182FEB010E948A000EC0BC
:1001900001E0010F812F0E948E007E018FEFE81A8F
:1001A000F80A88810E94AD00102FE7018881811133
:1001B000EFCFDF91CF911F910F91FF90EF900895B6
:1001C000CF93C82F8A3019F48DE00E94E00080910F
:1001D000C00085FFFCCFC093C60080E090E0CF91C7
:1001E0000895442349F021E030E002C0220F331F7C
:1001F0006A95E2F7822B089521E030E002C0220FD9
:10020000331F6A95E2F720958223089521E030E0BC
:1002100002C0220F331F6A95E2F78223089540E05F
:1002200064E08FEF0E94F10088B9000086B160E0C1
:1002300080950E940601811180C086B161E08095A1
:100240000E94060181117BC086B162E080950E9408
:100250000601811176C086B163E080950E94060197
:10026000811171C040E065E08FEF0E94F10088B914
:10027000000086B160E080950E940601811165C092
:1002800086B161E080950E940601811160C086B14F
:1002900062E080950E94060181115BC086B163E037
:1002A00080950E940601811156C040E066E08FEF04
:1002B0000E94F10088B9000086B160E080950E943C
:1002C000060181114AC086B161E080950E94060155
:1002D000811145C086B162E080950E9406018111BE
:1002E00040C086B163E080950E94060181113BC049
:1002F00040E067E08FEF0E94F10088B9000086B10E
:1003000060E080950E94060181112FC086B161E0F6
:1003100080950E94060181112AC086B162E0809515
:100320000E940601811125C086B163E080950E947C
:1003300006018823F9F084E4089581E3089584E3B5
:10034000089587E308958AE2089582E3089585E396
:10035000089588E3089580E3089583E3089586E38C
:10036000089589E3089583E2089581E4089582E47D
:10037000089583E40895CF93DF93EC01009719F07B
:10038000019751F014C00E940F01882391F08093CF
:100390002401C1E0D0E00DC00E940F01811109C00D
:1003A0008091240180930001C0E0D0E002C0C0E051
:1003B000D0E0CE01DF91CF9108950F931F93CF939B
:1003C000DF93B62FA72FF82FE92F022F132FD42F4B
:1003D000C52F04C0062F172FD82FC92F6B2F7A2FA8
:1003E0008F2F9E2F202F312F4D2F5C2F0E943103F6
:1003F000B02FA12FFD2FEC2F6115710581059105FF
:1004000049F7602F712F8D2F9C2FDF91CF911F9176
:100410000F91089560930F01709310018093110163
:10042000909312016093140170931501809316014B
:100430009093170108958BE0809381008DE790E001
:10044000909389008093880082E080936F001092DF
:1004500085001092840080910F0190911001A0916D
:100460001101B09112018093140190931501A09392
:100470001601B09317018FB780688FBF089510924F
:100480008100089581E08093180108951F920F92D2
:100490000FB60F9211240BB60F922F933F934F93E9
:1004A0005F936F937F938F939F93AF93BF93EF93DC
:1004B000FF938091140190911501A0911601B091C4
:1004C00017010197A109B1098093140190931501B7
:1004D000A0931601B0931701892B8A2B8B2B91F4D3
:1004E0000E94420280910F0190911001A091110190
:1004F000B09112018093140190931501A0931601FD
:10050000B0931701FF91EF91BF91AF919F918F91A0
:100510007F916F915F914F913F912F910F900BBE03
:100520000F900FBE0F901F901895CF93DF9300D0C0
:10053000CDB7DEB71FEF11B912B814B915B880EFF7
:1005400087B98FE088B91AB91BB80E949800E9E111
:10055000F1E0FA83E98310838AE090E0A0E0B0E064
:1005600081839283A383B48385839683A783B08793
:100570008BEB91E0928781870F2EFAE08F2E912CE2
:10058000A12CB12CF02D00E010E018C0F801EE0F06
:10059000FF1F81E090E08C0F9D1FE80FF91F019075
:1005A000F081E02D2181328143815481C501B40164
:1005B0000E94DD014B015C010F5F1F4F011511050A
:1005C00029F3C501B4010E940A020E941B020E9485
:1005D0008A00809100010E94AD0000E010E037C069
:1005E000F801EE0FFF1FA1E0B0E0AC0FBD1FEA0F56
:1005F000FB1FE080F180F70145815681678170859E
:1006000081819281A381B481481759076A077B07CA
:1006100079F40184F285E02DD7018C91082E000C2D
:10062000990B0995F701808315821682178210862F
:10063000F70185819681A781B085880D991DAA1D36
:10064000BB1D85839683A783B0870F5F1F4F01155E
:10065000110531F2809118018823E1F310921801FD
:10066000B6CFA1E21A2EAA1BBB1BFD010DC0AA1F0B
:10067000BB1FEE1FFF1FA217B307E407F50720F00B
:10068000A21BB30BE40BF50B661F771F881F991F86
:100690001A9469F760957095809590959B01AC01CF
:0A06A000BD01CF010895F894FFCFCB
:1006AA00200000000200000000E00000000000013D
:0406BA00000000003C
:00000001FF
